{
  "contractName": "Voting",
  "abi": [
    {
      "inputs": [],
      "stateMutability": "nonpayable",
      "type": "constructor"
    },
    {
      "anonymous": false,
      "inputs": [
        {
          "indexed": true,
          "internalType": "uint256",
          "name": "candidateId",
          "type": "uint256"
        }
      ],
      "name": "VoteCast",
      "type": "event"
    },
    {
      "inputs": [
        {
          "internalType": "uint256",
          "name": "",
          "type": "uint256"
        }
      ],
      "name": "candidates",
      "outputs": [
        {
          "internalType": "string",
          "name": "name",
          "type": "string"
        },
        {
          "internalType": "uint256",
          "name": "voteCount",
          "type": "uint256"
        }
      ],
      "stateMutability": "view",
      "type": "function",
      "constant": true
    },
    {
      "inputs": [],
      "name": "candidatesCount",
      "outputs": [
        {
          "internalType": "uint256",
          "name": "",
          "type": "uint256"
        }
      ],
      "stateMutability": "view",
      "type": "function",
      "constant": true
    },
    {
      "inputs": [
        {
          "internalType": "address",
          "name": "",
          "type": "address"
        }
      ],
      "name": "voters",
      "outputs": [
        {
          "internalType": "bool",
          "name": "",
          "type": "bool"
        }
      ],
      "stateMutability": "view",
      "type": "function",
      "constant": true
    },
    {
      "inputs": [
        {
          "internalType": "uint256",
          "name": "_candidateId",
          "type": "uint256"
        }
      ],
      "name": "vote",
      "outputs": [],
      "stateMutability": "nonpayable",
      "type": "function"
    },
    {
      "inputs": [
        {
          "internalType": "uint256",
          "name": "_candidateId",
          "type": "uint256"
        }
      ],
      "name": "getVoteCount",
      "outputs": [
        {
          "internalType": "uint256",
          "name": "",
          "type": "uint256"
        }
      ],
      "stateMutability": "view",
      "type": "function",
      "constant": true
    }
  ],
  "bytecode": "0x608060405234801561001057600080fd5b506100556040518060400160405280600781526020017f506172747920410000000000000000000000000000000000000000000000000081525061009e60201b60201c565b6100996040518060400160405280600781526020017f506172747920420000000000000000000000000000000000000000000000000081525061009e60201b60201c565b610293565b60405180604001604052808281526020016000815250600080600254815260200190815260200160002060008201518160000190805190602001906100e492919061010d565b506020820151816001015590505060026000815480929190610105906101ec565b919050555050565b828054610119906101ba565b90600052602060002090601f01602090048101928261013b5760008555610182565b82601f1061015457805160ff1916838001178555610182565b82800160010185558215610182579182015b82811115610181578251825591602001919060010190610166565b5b50905061018f9190610193565b5090565b5b808211156101ac576000816000905550600101610194565b5090565b6000819050919050565b600060028204905060018216806101d257607f821691505b602082108114156101e6576101e5610264565b5b50919050565b60006101f7826101b0565b91507fffffffffffffffffffffffffffffffffffffffffffffffffffffffffffffffff82141561022a57610229610235565b5b600182019050919050565b7f4e487b7100000000000000000000000000000000000000000000000000000000600052601160045260246000fd5b7f4e487b7100000000000000000000000000000000000000000000000000000000600052602260045260246000fd5b6107bd80620002a36000396000f3fe608060405234801561001057600080fd5b50600436106100575760003560e01c80630121b93f1461005c5780632d35a8a2146100785780633477ee2e14610096578063a3ec138d146100c7578063b2c2f2e8146100f7575b600080fd5b61007660048036038101906100719190610432565b610127565b005b6100806102aa565b60405161008d91906105bd565b60405180910390f35b6100b060048036038101906100ab9190610432565b6102b0565b6040516100be92919061054d565b60405180910390f35b6100e160048036038101906100dc9190610409565b61035c565b6040516100ee9190610532565b60405180910390f35b610111600480360381019061010c9190610432565b61037c565b60405161011e91906105bd565b60405180910390f35b600160003373ffffffffffffffffffffffffffffffffffffffff1673ffffffffffffffffffffffffffffffffffffffff16815260200190815260200160002060009054906101000a900460ff16156101b4576040517f08c379a00000000000000000000000000000000000000000000000000000000081526004016101ab9061057d565b60405180910390fd5b60025481106101f8576040517f08c379a00000000000000000000000000000000000000000000000000000000081526004016101ef9061059d565b60405180910390fd5b60018060003373ffffffffffffffffffffffffffffffffffffffff1673ffffffffffffffffffffffffffffffffffffffff16815260200190815260200160002060006101000a81548160ff0219169083151502179055506000808281526020019081526020016000206001016000815480929190610275906106a1565b9190505550807f9593d9bd30eff4872ec3bab10360ad82eaac80651801e68f47f0674c38415c3d60405160405180910390a250565b60025481565b60006020528060005260406000206000915090508060000180546102d39061066f565b80601f01602080910402602001604051908101604052809291908181526020018280546102ff9061066f565b801561034c5780601f106103215761010080835404028352916020019161034c565b820191906000526020600020905b81548152906001019060200180831161032f57829003601f168201915b5050505050908060010154905082565b60016020528060005260406000206000915054906101000a900460ff1681565b600060025482106103c2576040517f08c379a00000000000000000000000000000000000000000000000000000000081526004016103b99061059d565b60405180910390fd5b600080838152602001908152602001600020600101549050919050565b6000813590506103ee81610759565b92915050565b60008135905061040381610770565b92915050565b60006020828403121561041b57600080fd5b6000610429848285016103df565b91505092915050565b60006020828403121561044457600080fd5b6000610452848285016103f4565b91505092915050565b61046481610606565b82525050565b6000610475826105d8565b61047f81856105e3565b935061048f81856020860161063c565b61049881610748565b840191505092915050565b60006104b06017836105e3565b91507f596f75206861766520616c726561647920766f7465642e0000000000000000006000830152602082019050919050565b60006104f06015836105e3565b91507f496e76616c69642063616e6469646174652049442e00000000000000000000006000830152602082019050919050565b61052c81610632565b82525050565b6000602082019050610547600083018461045b565b92915050565b60006040820190508181036000830152610567818561046a565b90506105766020830184610523565b9392505050565b60006020820190508181036000830152610596816104a3565b9050919050565b600060208201905081810360008301526105b6816104e3565b9050919050565b60006020820190506105d26000830184610523565b92915050565b600081519050919050565b600082825260208201905092915050565b60006105ff82610612565b9050919050565b60008115159050919050565b600073ffffffffffffffffffffffffffffffffffffffff82169050919050565b6000819050919050565b60005b8381101561065a57808201518184015260208101905061063f565b83811115610669576000848401525b50505050565b6000600282049050600182168061068757607f821691505b6020821081141561069b5761069a610719565b5b50919050565b60006106ac82610632565b91507fffffffffffffffffffffffffffffffffffffffffffffffffffffffffffffffff8214156106df576106de6106ea565b5b600182019050919050565b7f4e487b7100000000000000000000000000000000000000000000000000000000600052601160045260246000fd5b7f4e487b7100000000000000000000000000000000000000000000000000000000600052602260045260246000fd5b6000601f19601f8301169050919050565b610762816105f4565b811461076d57600080fd5b50565b61077981610632565b811461078457600080fd5b5056fea264697066735822122088d3f702dc5897b1a0d6e9faab293f6e631fb2ad9b5179a35f096a207cee675764736f6c63430008000033",
  "immutableReferences": {},
  "source": "// SPDX-License-Identifier: MIT\r\npragma solidity ^0.8.0;\r\n\r\ncontract Voting {\r\n    struct Candidate {\r\n        string name;\r\n        uint voteCount;\r\n    }\r\n\r\n    mapping(uint => Candidate) public candidates; // Mapping of candidate ID to Candidate\r\n    mapping(address => bool) public voters; // Track if an address has voted\r\n\r\n    uint public candidatesCount;\r\n\r\n    // Event emitted when a vote is cast\r\n    event VoteCast(uint indexed candidateId);\r\n\r\n    constructor() {\r\n        addCandidate(\"Party A\");\r\n        addCandidate(\"Party B\");\r\n    }\r\n\r\n    function addCandidate(string memory _name) private {\r\n        candidates[candidatesCount] = Candidate(_name, 0);\r\n        candidatesCount++;\r\n    }\r\n\r\n    function vote(uint _candidateId) public {\r\n        require(!voters[msg.sender], \"You have already voted.\");\r\n        require(_candidateId < candidatesCount, \"Invalid candidate ID.\");\r\n\r\n        voters[msg.sender] = true; // Mark voter as having voted\r\n        candidates[_candidateId].voteCount++; // Increment vote count\r\n\r\n        emit VoteCast(_candidateId); // Emit event for logging\r\n    }\r\n\r\n    function getVoteCount(uint _candidateId) public view returns (uint) {\r\n        require(_candidateId < candidatesCount, \"Invalid candidate ID.\");\r\n        return candidates[_candidateId].voteCount;\r\n    }\r\n}\r\n",
  "sourcePath": "C:\\Users\\User\\Desktop\\Final Year Project\\Implementation\\Project\\backend\\blockchain\\contracts\\Voting.sol",
  "compiler": {
    "name": "solc",
    "version": "0.8.0+commit.c7dfd78e.Emscripten.clang"
  },
  "schemaVersion": "3.4.16",
  "updatedAt": "2024-10-11T02:44:46.797Z",
  "networkType": "ethereum",
  "devdoc": {
    "kind": "dev",
    "methods": {},
    "version": 1
  },
  "userdoc": {
    "kind": "user",
    "methods": {},
    "version": 1
  }
}